{
  "_format": "hh-sol-artifact-1",
  "contractName": "Ehousing",
  "sourceName": "contracts/Ehousing.sol",
  "abi": [
    {
      "inputs": [
        {
          "internalType": "address",
          "name": "initialOwner",
          "type": "address"
        }
      ],
      "stateMutability": "nonpayable",
      "type": "constructor"
    },
    {
      "inputs": [
        {
          "internalType": "address",
          "name": "sender",
          "type": "address"
        },
        {
          "internalType": "uint256",
          "name": "tokenId",
          "type": "uint256"
        },
        {
          "internalType": "address",
          "name": "owner",
          "type": "address"
        }
      ],
      "name": "ERC721IncorrectOwner",
      "type": "error"
    },
    {
      "inputs": [
        {
          "internalType": "address",
          "name": "operator",
          "type": "address"
        },
        {
          "internalType": "uint256",
          "name": "tokenId",
          "type": "uint256"
        }
      ],
      "name": "ERC721InsufficientApproval",
      "type": "error"
    },
    {
      "inputs": [
        {
          "internalType": "address",
          "name": "approver",
          "type": "address"
        }
      ],
      "name": "ERC721InvalidApprover",
      "type": "error"
    },
    {
      "inputs": [
        {
          "internalType": "address",
          "name": "operator",
          "type": "address"
        }
      ],
      "name": "ERC721InvalidOperator",
      "type": "error"
    },
    {
      "inputs": [
        {
          "internalType": "address",
          "name": "owner",
          "type": "address"
        }
      ],
      "name": "ERC721InvalidOwner",
      "type": "error"
    },
    {
      "inputs": [
        {
          "internalType": "address",
          "name": "receiver",
          "type": "address"
        }
      ],
      "name": "ERC721InvalidReceiver",
      "type": "error"
    },
    {
      "inputs": [
        {
          "internalType": "address",
          "name": "sender",
          "type": "address"
        }
      ],
      "name": "ERC721InvalidSender",
      "type": "error"
    },
    {
      "inputs": [
        {
          "internalType": "uint256",
          "name": "tokenId",
          "type": "uint256"
        }
      ],
      "name": "ERC721NonexistentToken",
      "type": "error"
    },
    {
      "inputs": [],
      "name": "InvalidRentValue",
      "type": "error"
    },
    {
      "inputs": [
        {
          "internalType": "address",
          "name": "owner",
          "type": "address"
        }
      ],
      "name": "OwnableInvalidOwner",
      "type": "error"
    },
    {
      "inputs": [
        {
          "internalType": "address",
          "name": "account",
          "type": "address"
        }
      ],
      "name": "OwnableUnauthorizedAccount",
      "type": "error"
    },
    {
      "inputs": [],
      "name": "RentExpired",
      "type": "error"
    },
    {
      "anonymous": false,
      "inputs": [
        {
          "indexed": true,
          "internalType": "address",
          "name": "owner",
          "type": "address"
        },
        {
          "indexed": true,
          "internalType": "address",
          "name": "approved",
          "type": "address"
        },
        {
          "indexed": true,
          "internalType": "uint256",
          "name": "tokenId",
          "type": "uint256"
        }
      ],
      "name": "Approval",
      "type": "event"
    },
    {
      "anonymous": false,
      "inputs": [
        {
          "indexed": true,
          "internalType": "address",
          "name": "owner",
          "type": "address"
        },
        {
          "indexed": true,
          "internalType": "address",
          "name": "operator",
          "type": "address"
        },
        {
          "indexed": false,
          "internalType": "bool",
          "name": "approved",
          "type": "bool"
        }
      ],
      "name": "ApprovalForAll",
      "type": "event"
    },
    {
      "anonymous": false,
      "inputs": [
        {
          "indexed": false,
          "internalType": "uint256",
          "name": "_fromTokenId",
          "type": "uint256"
        },
        {
          "indexed": false,
          "internalType": "uint256",
          "name": "_toTokenId",
          "type": "uint256"
        }
      ],
      "name": "BatchMetadataUpdate",
      "type": "event"
    },
    {
      "anonymous": false,
      "inputs": [
        {
          "indexed": false,
          "internalType": "uint256",
          "name": "tokenId",
          "type": "uint256"
        },
        {
          "indexed": false,
          "internalType": "string",
          "name": "uri",
          "type": "string"
        }
      ],
      "name": "HouseCreated",
      "type": "event"
    },
    {
      "anonymous": false,
      "inputs": [
        {
          "indexed": false,
          "internalType": "uint256",
          "name": "tokenId",
          "type": "uint256"
        },
        {
          "indexed": false,
          "internalType": "address",
          "name": "tempOwner",
          "type": "address"
        }
      ],
      "name": "HouseGiven",
      "type": "event"
    },
    {
      "anonymous": false,
      "inputs": [
        {
          "indexed": false,
          "internalType": "uint256",
          "name": "tokenId",
          "type": "uint256"
        },
        {
          "indexed": false,
          "internalType": "address",
          "name": "tempOwner",
          "type": "address"
        }
      ],
      "name": "HouseMinted",
      "type": "event"
    },
    {
      "anonymous": false,
      "inputs": [
        {
          "indexed": false,
          "internalType": "uint256",
          "name": "_tokenId",
          "type": "uint256"
        }
      ],
      "name": "MetadataUpdate",
      "type": "event"
    },
    {
      "anonymous": false,
      "inputs": [
        {
          "indexed": true,
          "internalType": "address",
          "name": "previousOwner",
          "type": "address"
        },
        {
          "indexed": true,
          "internalType": "address",
          "name": "newOwner",
          "type": "address"
        }
      ],
      "name": "OwnershipTransferred",
      "type": "event"
    },
    {
      "anonymous": false,
      "inputs": [
        {
          "indexed": false,
          "internalType": "uint256",
          "name": "tokenId",
          "type": "uint256"
        },
        {
          "indexed": false,
          "internalType": "address",
          "name": "tempOwner",
          "type": "address"
        },
        {
          "indexed": false,
          "internalType": "uint256",
          "name": "value",
          "type": "uint256"
        }
      ],
      "name": "RentPaid",
      "type": "event"
    },
    {
      "anonymous": false,
      "inputs": [
        {
          "indexed": true,
          "internalType": "address",
          "name": "from",
          "type": "address"
        },
        {
          "indexed": true,
          "internalType": "address",
          "name": "to",
          "type": "address"
        },
        {
          "indexed": true,
          "internalType": "uint256",
          "name": "tokenId",
          "type": "uint256"
        }
      ],
      "name": "Transfer",
      "type": "event"
    },
    {
      "inputs": [],
      "name": "_initialOwner",
      "outputs": [
        {
          "internalType": "address",
          "name": "",
          "type": "address"
        }
      ],
      "stateMutability": "view",
      "type": "function"
    },
    {
      "inputs": [
        {
          "internalType": "address",
          "name": "to",
          "type": "address"
        },
        {
          "internalType": "uint256",
          "name": "tokenId",
          "type": "uint256"
        }
      ],
      "name": "approve",
      "outputs": [],
      "stateMutability": "nonpayable",
      "type": "function"
    },
    {
      "inputs": [
        {
          "internalType": "address",
          "name": "owner",
          "type": "address"
        }
      ],
      "name": "balanceOf",
      "outputs": [
        {
          "internalType": "uint256",
          "name": "",
          "type": "uint256"
        }
      ],
      "stateMutability": "view",
      "type": "function"
    },
    {
      "inputs": [
        {
          "internalType": "uint256",
          "name": "tokenId",
          "type": "uint256"
        }
      ],
      "name": "burn",
      "outputs": [],
      "stateMutability": "nonpayable",
      "type": "function"
    },
    {
      "inputs": [
        {
          "internalType": "string",
          "name": "uri",
          "type": "string"
        }
      ],
      "name": "createHouse",
      "outputs": [
        {
          "internalType": "uint256",
          "name": "",
          "type": "uint256"
        }
      ],
      "stateMutability": "nonpayable",
      "type": "function"
    },
    {
      "inputs": [
        {
          "internalType": "uint256",
          "name": "tokenId",
          "type": "uint256"
        }
      ],
      "name": "getApproved",
      "outputs": [
        {
          "internalType": "address",
          "name": "",
          "type": "address"
        }
      ],
      "stateMutability": "view",
      "type": "function"
    },
    {
      "inputs": [
        {
          "internalType": "uint256",
          "name": "tokenId",
          "type": "uint256"
        }
      ],
      "name": "getRentalInfo",
      "outputs": [
        {
          "components": [
            {
              "internalType": "uint256",
              "name": "dateFrom",
              "type": "uint256"
            },
            {
              "internalType": "uint256",
              "name": "dateTo",
              "type": "uint256"
            },
            {
              "internalType": "uint256",
              "name": "lastTimePaid",
              "type": "uint256"
            },
            {
              "internalType": "uint256",
              "name": "rentValue",
              "type": "uint256"
            },
            {
              "internalType": "address",
              "name": "tempOwner",
              "type": "address"
            }
          ],
          "internalType": "struct HouseRentalInfo",
          "name": "",
          "type": "tuple"
        }
      ],
      "stateMutability": "view",
      "type": "function"
    },
    {
      "inputs": [
        {
          "internalType": "uint256",
          "name": "tokenId",
          "type": "uint256"
        }
      ],
      "name": "giveBack",
      "outputs": [],
      "stateMutability": "nonpayable",
      "type": "function"
    },
    {
      "inputs": [
        {
          "internalType": "address",
          "name": "to",
          "type": "address"
        },
        {
          "internalType": "uint256",
          "name": "tokenId",
          "type": "uint256"
        },
        {
          "internalType": "uint256",
          "name": "dateFrom",
          "type": "uint256"
        },
        {
          "internalType": "uint256",
          "name": "dateTo",
          "type": "uint256"
        },
        {
          "internalType": "uint256",
          "name": "rentValue",
          "type": "uint256"
        }
      ],
      "name": "giveHouse",
      "outputs": [],
      "stateMutability": "nonpayable",
      "type": "function"
    },
    {
      "inputs": [
        {
          "internalType": "address",
          "name": "owner",
          "type": "address"
        },
        {
          "internalType": "address",
          "name": "operator",
          "type": "address"
        }
      ],
      "name": "isApprovedForAll",
      "outputs": [
        {
          "internalType": "bool",
          "name": "",
          "type": "bool"
        }
      ],
      "stateMutability": "view",
      "type": "function"
    },
    {
      "inputs": [
        {
          "internalType": "uint256",
          "name": "tokenId",
          "type": "uint256"
        }
      ],
      "name": "isValidRental",
      "outputs": [
        {
          "internalType": "bool",
          "name": "",
          "type": "bool"
        }
      ],
      "stateMutability": "view",
      "type": "function"
    },
    {
      "inputs": [],
      "name": "name",
      "outputs": [
        {
          "internalType": "string",
          "name": "",
          "type": "string"
        }
      ],
      "stateMutability": "view",
      "type": "function"
    },
    {
      "inputs": [],
      "name": "owner",
      "outputs": [
        {
          "internalType": "address",
          "name": "",
          "type": "address"
        }
      ],
      "stateMutability": "view",
      "type": "function"
    },
    {
      "inputs": [
        {
          "internalType": "uint256",
          "name": "tokenId",
          "type": "uint256"
        }
      ],
      "name": "ownerOf",
      "outputs": [
        {
          "internalType": "address",
          "name": "",
          "type": "address"
        }
      ],
      "stateMutability": "view",
      "type": "function"
    },
    {
      "inputs": [
        {
          "internalType": "uint256",
          "name": "tokenId",
          "type": "uint256"
        }
      ],
      "name": "renewRent",
      "outputs": [],
      "stateMutability": "payable",
      "type": "function"
    },
    {
      "inputs": [],
      "name": "renounceOwnership",
      "outputs": [],
      "stateMutability": "nonpayable",
      "type": "function"
    },
    {
      "inputs": [
        {
          "internalType": "uint256",
          "name": "tokenId",
          "type": "uint256"
        }
      ],
      "name": "retakeOwnership",
      "outputs": [],
      "stateMutability": "nonpayable",
      "type": "function"
    },
    {
      "inputs": [
        {
          "internalType": "uint256",
          "name": "tokenId",
          "type": "uint256"
        }
      ],
      "name": "retakeOwnershipForced",
      "outputs": [],
      "stateMutability": "nonpayable",
      "type": "function"
    },
    {
      "inputs": [
        {
          "internalType": "address",
          "name": "from",
          "type": "address"
        },
        {
          "internalType": "address",
          "name": "to",
          "type": "address"
        },
        {
          "internalType": "uint256",
          "name": "tokenId",
          "type": "uint256"
        }
      ],
      "name": "safeTransferFrom",
      "outputs": [],
      "stateMutability": "nonpayable",
      "type": "function"
    },
    {
      "inputs": [
        {
          "internalType": "address",
          "name": "from",
          "type": "address"
        },
        {
          "internalType": "address",
          "name": "to",
          "type": "address"
        },
        {
          "internalType": "uint256",
          "name": "tokenId",
          "type": "uint256"
        },
        {
          "internalType": "bytes",
          "name": "data",
          "type": "bytes"
        }
      ],
      "name": "safeTransferFrom",
      "outputs": [],
      "stateMutability": "nonpayable",
      "type": "function"
    },
    {
      "inputs": [
        {
          "internalType": "address",
          "name": "operator",
          "type": "address"
        },
        {
          "internalType": "bool",
          "name": "approved",
          "type": "bool"
        }
      ],
      "name": "setApprovalForAll",
      "outputs": [],
      "stateMutability": "nonpayable",
      "type": "function"
    },
    {
      "inputs": [
        {
          "internalType": "bytes4",
          "name": "interfaceId",
          "type": "bytes4"
        }
      ],
      "name": "supportsInterface",
      "outputs": [
        {
          "internalType": "bool",
          "name": "",
          "type": "bool"
        }
      ],
      "stateMutability": "view",
      "type": "function"
    },
    {
      "inputs": [],
      "name": "symbol",
      "outputs": [
        {
          "internalType": "string",
          "name": "",
          "type": "string"
        }
      ],
      "stateMutability": "view",
      "type": "function"
    },
    {
      "inputs": [],
      "name": "test",
      "outputs": [
        {
          "internalType": "uint256",
          "name": "",
          "type": "uint256"
        }
      ],
      "stateMutability": "view",
      "type": "function"
    },
    {
      "inputs": [
        {
          "internalType": "uint256",
          "name": "tokenId",
          "type": "uint256"
        }
      ],
      "name": "tokenURI",
      "outputs": [
        {
          "internalType": "string",
          "name": "",
          "type": "string"
        }
      ],
      "stateMutability": "view",
      "type": "function"
    },
    {
      "inputs": [
        {
          "internalType": "address",
          "name": "from",
          "type": "address"
        },
        {
          "internalType": "address",
          "name": "to",
          "type": "address"
        },
        {
          "internalType": "uint256",
          "name": "tokenId",
          "type": "uint256"
        }
      ],
      "name": "transferFrom",
      "outputs": [],
      "stateMutability": "nonpayable",
      "type": "function"
    },
    {
      "inputs": [
        {
          "internalType": "address",
          "name": "newOwner",
          "type": "address"
        }
      ],
      "name": "transferOwnership",
      "outputs": [],
      "stateMutability": "nonpayable",
      "type": "function"
    }
  ],
  "bytecode": "0x608060405234801561001057600080fd5b50604051613cd0380380613cd0833981810160405281019061003291906102b3565b806040518060400160405280600881526020017f45686f7573696e670000000000000000000000000000000000000000000000008152506040518060400160405280600581526020017f454853573300000000000000000000000000000000000000000000000000000081525081600090816100ae9190610530565b5080600190816100be9190610530565b505050600073ffffffffffffffffffffffffffffffffffffffff168173ffffffffffffffffffffffffffffffffffffffff16036101335760006040517f1e4fbdf700000000000000000000000000000000000000000000000000000000815260040161012a9190610611565b60405180910390fd5b6101428161018a60201b60201c565b5080600b60006101000a81548173ffffffffffffffffffffffffffffffffffffffff021916908373ffffffffffffffffffffffffffffffffffffffff1602179055505061062c565b6000600760009054906101000a900473ffffffffffffffffffffffffffffffffffffffff16905081600760006101000a81548173ffffffffffffffffffffffffffffffffffffffff021916908373ffffffffffffffffffffffffffffffffffffffff1602179055508173ffffffffffffffffffffffffffffffffffffffff168173ffffffffffffffffffffffffffffffffffffffff167f8be0079c531659141344cd1fd0a4f28419497f9722a3daafe3b4186f6b6457e060405160405180910390a35050565b600080fd5b600073ffffffffffffffffffffffffffffffffffffffff82169050919050565b600061028082610255565b9050919050565b61029081610275565b811461029b57600080fd5b50565b6000815190506102ad81610287565b92915050565b6000602082840312156102c9576102c8610250565b5b60006102d78482850161029e565b91505092915050565b600081519050919050565b7f4e487b7100000000000000000000000000000000000000000000000000000000600052604160045260246000fd5b7f4e487b7100000000000000000000000000000000000000000000000000000000600052602260045260246000fd5b6000600282049050600182168061036157607f821691505b6020821081036103745761037361031a565b5b50919050565b60008190508160005260206000209050919050565b60006020601f8301049050919050565b600082821b905092915050565b6000600883026103dc7fffffffffffffffffffffffffffffffffffffffffffffffffffffffffffffffff8261039f565b6103e6868361039f565b95508019841693508086168417925050509392505050565b6000819050919050565b6000819050919050565b600061042d610428610423846103fe565b610408565b6103fe565b9050919050565b6000819050919050565b61044783610412565b61045b61045382610434565b8484546103ac565b825550505050565b600090565b610470610463565b61047b81848461043e565b505050565b5b8181101561049f57610494600082610468565b600181019050610481565b5050565b601f8211156104e4576104b58161037a565b6104be8461038f565b810160208510156104cd578190505b6104e16104d98561038f565b830182610480565b50505b505050565b600082821c905092915050565b6000610507600019846008026104e9565b1980831691505092915050565b600061052083836104f6565b9150826002028217905092915050565b610539826102e0565b67ffffffffffffffff811115610552576105516102eb565b5b61055c8254610349565b6105678282856104a3565b600060209050601f83116001811461059a5760008415610588578287015190505b6105928582610514565b8655506105fa565b601f1984166105a88661037a565b60005b828110156105d0578489015182556001820191506020850194506020810190506105ab565b868310156105ed57848901516105e9601f8916826104f6565b8355505b6001600288020188555050505b505050505050565b61060b81610275565b82525050565b60006020820190506106266000830184610602565b92915050565b6136958061063b6000396000f3fe60806040526004361061019c5760003560e01c80636352211e116100ec578063b88d4fde1161008a578063efa1d41311610064578063efa1d413146105fa578063f2fde38b14610623578063f6ce2d1f1461064c578063f8a8fd6d146106685761019c565b8063b88d4fde14610557578063c87b56dd14610580578063e985e9c5146105bd5761019c565b8063821f9cb3116100c6578063821f9cb31461049b5780638da5cb5b146104d857806395d89b4114610503578063a22cb4651461052e5761019c565b80636352211e1461040a57806370a0823114610447578063715018a6146104845761019c565b806318efdb99116101595780633c3adc28116101335780633c3adc281461035257806342842e0e1461038f57806342966c68146103b8578063617bf688146103e15761019c565b806318efdb99146102c157806323b872dd146102ec57806327dc3fbd146103155761019c565b806301ffc9a7146101a157806306fdde03146101de578063081812fc14610209578063095ea7b3146102465780630d5847b01461026f57806311d235a714610298575b600080fd5b3480156101ad57600080fd5b506101c860048036038101906101c391906126f0565b610693565b6040516101d59190612738565b60405180910390f35b3480156101ea57600080fd5b506101f36106a5565b60405161020091906127e3565b60405180910390f35b34801561021557600080fd5b50610230600480360381019061022b919061283b565b610737565b60405161023d91906128a9565b60405180910390f35b34801561025257600080fd5b5061026d600480360381019061026891906128f0565b610753565b005b34801561027b57600080fd5b506102966004803603810190610291919061283b565b610769565b005b3480156102a457600080fd5b506102bf60048036038101906102ba919061283b565b6108a1565b005b3480156102cd57600080fd5b506102d66108bf565b6040516102e391906128a9565b60405180910390f35b3480156102f857600080fd5b50610313600480360381019061030e9190612930565b6108e5565b005b34801561032157600080fd5b5061033c6004803603810190610337919061283b565b6109e7565b6040516103499190612a09565b60405180910390f35b34801561035e57600080fd5b506103796004803603810190610374919061283b565b610a92565b6040516103869190612738565b60405180910390f35b34801561039b57600080fd5b506103b660048036038101906103b19190612930565b610ad7565b005b3480156103c457600080fd5b506103df60048036038101906103da919061283b565b610af7565b005b3480156103ed57600080fd5b5061040860048036038101906104039190612a24565b610b0e565b005b34801561041657600080fd5b50610431600480360381019061042c919061283b565b610c19565b60405161043e91906128a9565b60405180910390f35b34801561045357600080fd5b5061046e60048036038101906104699190612a9f565b610c2b565b60405161047b9190612adb565b60405180910390f35b34801561049057600080fd5b50610499610ce5565b005b3480156104a757600080fd5b506104c260048036038101906104bd9190612c2b565b610cf9565b6040516104cf9190612adb565b60405180910390f35b3480156104e457600080fd5b506104ed610d74565b6040516104fa91906128a9565b60405180910390f35b34801561050f57600080fd5b50610518610d9e565b60405161052591906127e3565b60405180910390f35b34801561053a57600080fd5b5061055560048036038101906105509190612ca0565b610e30565b005b34801561056357600080fd5b5061057e60048036038101906105799190612d81565b610e46565b005b34801561058c57600080fd5b506105a760048036038101906105a2919061283b565b610e6b565b6040516105b491906127e3565b60405180910390f35b3480156105c957600080fd5b506105e460048036038101906105df9190612e04565b610e7d565b6040516105f19190612738565b60405180910390f35b34801561060657600080fd5b50610621600480360381019061061c919061283b565b610f11565b005b34801561062f57600080fd5b5061064a60048036038101906106459190612a9f565b610f7a565b005b6106666004803603810190610661919061283b565b611000565b005b34801561067457600080fd5b5061067d6112a2565b60405161068a9190612adb565b60405180910390f35b600061069e826112a8565b9050919050565b6060600080546106b490612e73565b80601f01602080910402602001604051908101604052809291908181526020018280546106e090612e73565b801561072d5780601f106107025761010080835404028352916020019161072d565b820191906000526020600020905b81548152906001019060200180831161071057829003601f168201915b5050505050905090565b600061074282611309565b5061074c82611391565b9050919050565b61076582826107606113ce565b6113d6565b5050565b803373ffffffffffffffffffffffffffffffffffffffff1661078a82610c19565b73ffffffffffffffffffffffffffffffffffffffff16146107e0576040517f08c379a00000000000000000000000000000000000000000000000000000000081526004016107d790612ef0565b60405180910390fd5b600b60009054906101000a900473ffffffffffffffffffffffffffffffffffffffff1673ffffffffffffffffffffffffffffffffffffffff163373ffffffffffffffffffffffffffffffffffffffff1603610870576040517f08c379a000000000000000000000000000000000000000000000000000000000815260040161086790612fa8565b60405180910390fd5b61089d33600b60009054906101000a900473ffffffffffffffffffffffffffffffffffffffff16846113e8565b5050565b6108a9611408565b6108bc6108b582610c19565b33836113e8565b50565b600b60009054906101000a900473ffffffffffffffffffffffffffffffffffffffff1681565b600073ffffffffffffffffffffffffffffffffffffffff168273ffffffffffffffffffffffffffffffffffffffff16036109575760006040517f64a0ae9200000000000000000000000000000000000000000000000000000000815260040161094e91906128a9565b60405180910390fd5b600061096b83836109666113ce565b61148f565b90508373ffffffffffffffffffffffffffffffffffffffff168173ffffffffffffffffffffffffffffffffffffffff16146109e1578382826040517f64283d7b0000000000000000000000000000000000000000000000000000000081526004016109d893929190612fc8565b60405180910390fd5b50505050565b6109ef61263f565b600960008381526020019081526020016000206040518060a0016040529081600082015481526020016001820154815260200160028201548152602001600382015481526020016004820160009054906101000a900473ffffffffffffffffffffffffffffffffffffffff1673ffffffffffffffffffffffffffffffffffffffff1673ffffffffffffffffffffffffffffffffffffffff16815250509050919050565b600060096000838152602001908152602001600020600001544210158015610ad0575060096000838152602001908152602001600020600101544211155b9050919050565b610af283838360405180602001604052806000815250610e46565b505050565b610b0a600082610b056113ce565b61148f565b5050565b610b16611408565b6040518060a00160405280848152602001838152602001600081526020018281526020018673ffffffffffffffffffffffffffffffffffffffff16815250600960008681526020019081526020016000206000820151816000015560208201518160010155604082015181600201556060820151816003015560808201518160040160006101000a81548173ffffffffffffffffffffffffffffffffffffffff021916908373ffffffffffffffffffffffffffffffffffffffff1602179055509050507f263a4ec3c61185d758c0598ff351e6a70a61a8f69b19ddff4d793c144f791ad28486604051610c0a929190612fff565b60405180910390a15050505050565b6000610c2482611309565b9050919050565b60008073ffffffffffffffffffffffffffffffffffffffff168273ffffffffffffffffffffffffffffffffffffffff1603610c9e5760006040517f89c62b64000000000000000000000000000000000000000000000000000000008152600401610c9591906128a9565b60405180910390fd5b600360008373ffffffffffffffffffffffffffffffffffffffff1673ffffffffffffffffffffffffffffffffffffffff168152602001908152602001600020549050919050565b610ced611408565b610cf760006116a9565b565b6000610d03611408565b600060086000815480929190610d1890613057565b919050559050610d28818461176f565b610d3233826117cb565b7f419fa66097fc330be3d49cc30079780500a6b2412dcb920e9c9bfc03a40c77578184604051610d6392919061309f565b60405180910390a180915050919050565b6000600760009054906101000a900473ffffffffffffffffffffffffffffffffffffffff16905090565b606060018054610dad90612e73565b80601f0160208091040260200160405190810160405280929190818152602001828054610dd990612e73565b8015610e265780601f10610dfb57610100808354040283529160200191610e26565b820191906000526020600020905b815481529060010190602001808311610e0957829003601f168201915b5050505050905090565b610e42610e3b6113ce565b83836117e9565b5050565b610e518484846108e5565b610e65610e5c6113ce565b85858585611958565b50505050565b6060610e7682611b09565b9050919050565b6000600560008473ffffffffffffffffffffffffffffffffffffffff1673ffffffffffffffffffffffffffffffffffffffff16815260200190815260200160002060008373ffffffffffffffffffffffffffffffffffffffff1673ffffffffffffffffffffffffffffffffffffffff16815260200190815260200160002060009054906101000a900460ff16905092915050565b610f19611408565b80610f2381610a92565b15610f63576040517f08c379a0000000000000000000000000000000000000000000000000000000008152600401610f5a9061311b565b60405180910390fd5b610f76610f6f83610c19565b33846113e8565b5050565b610f82611408565b600073ffffffffffffffffffffffffffffffffffffffff168173ffffffffffffffffffffffffffffffffffffffff1603610ff45760006040517f1e4fbdf7000000000000000000000000000000000000000000000000000000008152600401610feb91906128a9565b60405180910390fd5b610ffd816116a9565b50565b6009600082815260200190815260200160002060040160009054906101000a900473ffffffffffffffffffffffffffffffffffffffff1673ffffffffffffffffffffffffffffffffffffffff163373ffffffffffffffffffffffffffffffffffffffff16146110a4576040517f08c379a000000000000000000000000000000000000000000000000000000000815260040161109b906131ad565b60405180910390fd5b6000600960008381526020019081526020016000206001015442111590508061112e576110fc6110d383610c19565b600b60009054906101000a900473ffffffffffffffffffffffffffffffffffffffff16846113e8565b6040517fa90e21b500000000000000000000000000000000000000000000000000000000815260040160405180910390fd5b6000600960008481526020019081526020016000206002015403611213576002600960008481526020019081526020016000206003015461116f91906131cd565b34146111a7576040517fd788510200000000000000000000000000000000000000000000000000000000815260040160405180910390fd5b6111ba6111b383610c19565b33846113e8565b4260096000848152602001908152602001600020600201819055507f948028eedeaf1a5d60e877183b8fe5ae2ef3281f803882b4f1fa39020a429ac18233604051611206929190612fff565b60405180910390a161129e565b60096000838152602001908152602001600020600301543414611262576040517fd788510200000000000000000000000000000000000000000000000000000000815260040160405180910390fd5b7f63e55317e25c0cab3a2de23ee0e244496daea0c1c2b8e272bbc01722b96bb9ae8233346040516112959392919061320f565b60405180910390a15b5050565b600a5481565b6000634906490660e01b7bffffffffffffffffffffffffffffffffffffffffffffffffffffffff1916827bffffffffffffffffffffffffffffffffffffffffffffffffffffffff19161480611302575061130182611c1c565b5b9050919050565b60008061131583611cfe565b9050600073ffffffffffffffffffffffffffffffffffffffff168173ffffffffffffffffffffffffffffffffffffffff160361138857826040517f7e27328900000000000000000000000000000000000000000000000000000000815260040161137f9190612adb565b60405180910390fd5b80915050919050565b60006004600083815260200190815260200160002060009054906101000a900473ffffffffffffffffffffffffffffffffffffffff169050919050565b600033905090565b6113e38383836001611d3b565b505050565b61140383838360405180602001604052806000815250611f00565b505050565b6114106113ce565b73ffffffffffffffffffffffffffffffffffffffff1661142e610d74565b73ffffffffffffffffffffffffffffffffffffffff161461148d576114516113ce565b6040517f118cdaa700000000000000000000000000000000000000000000000000000000815260040161148491906128a9565b60405180910390fd5b565b60008061149b84611cfe565b9050600073ffffffffffffffffffffffffffffffffffffffff168373ffffffffffffffffffffffffffffffffffffffff16146114dd576114dc818486611f25565b5b600073ffffffffffffffffffffffffffffffffffffffff168173ffffffffffffffffffffffffffffffffffffffff161461156e5761151f600085600080611d3b565b6001600360008373ffffffffffffffffffffffffffffffffffffffff1673ffffffffffffffffffffffffffffffffffffffff168152602001908152602001600020600082825403925050819055505b600073ffffffffffffffffffffffffffffffffffffffff168573ffffffffffffffffffffffffffffffffffffffff16146115f1576001600360008773ffffffffffffffffffffffffffffffffffffffff1673ffffffffffffffffffffffffffffffffffffffff168152602001908152602001600020600082825401925050819055505b846002600086815260200190815260200160002060006101000a81548173ffffffffffffffffffffffffffffffffffffffff021916908373ffffffffffffffffffffffffffffffffffffffff160217905550838573ffffffffffffffffffffffffffffffffffffffff168273ffffffffffffffffffffffffffffffffffffffff167fddf252ad1be2c89b69c2b068fc378daa952ba7f163c4a11628f55a4df523b3ef60405160405180910390a4809150509392505050565b6000600760009054906101000a900473ffffffffffffffffffffffffffffffffffffffff16905081600760006101000a81548173ffffffffffffffffffffffffffffffffffffffff021916908373ffffffffffffffffffffffffffffffffffffffff1602179055508173ffffffffffffffffffffffffffffffffffffffff168173ffffffffffffffffffffffffffffffffffffffff167f8be0079c531659141344cd1fd0a4f28419497f9722a3daafe3b4186f6b6457e060405160405180910390a35050565b8060066000848152602001908152602001600020908161178f91906133f2565b507ff8e1a15aba9398e019f0b49df1a4fde98ee17ae345cb5f6b5e2c27f5033e8ce7826040516117bf9190612adb565b60405180910390a15050565b6117e5828260405180602001604052806000815250611fe9565b5050565b600073ffffffffffffffffffffffffffffffffffffffff168273ffffffffffffffffffffffffffffffffffffffff160361185a57816040517f5b08ba1800000000000000000000000000000000000000000000000000000000815260040161185191906128a9565b60405180910390fd5b80600560008573ffffffffffffffffffffffffffffffffffffffff1673ffffffffffffffffffffffffffffffffffffffff16815260200190815260200160002060008473ffffffffffffffffffffffffffffffffffffffff1673ffffffffffffffffffffffffffffffffffffffff16815260200190815260200160002060006101000a81548160ff0219169083151502179055508173ffffffffffffffffffffffffffffffffffffffff168373ffffffffffffffffffffffffffffffffffffffff167f17307eab39ab6107e8899845ad3d59bd9653f200f220920489ca2b5937696c318360405161194b9190612738565b60405180910390a3505050565b60008373ffffffffffffffffffffffffffffffffffffffff163b1115611b02578273ffffffffffffffffffffffffffffffffffffffff1663150b7a02868685856040518563ffffffff1660e01b81526004016119b79493929190613519565b6020604051808303816000875af19250505080156119f357506040513d601f19601f820116820180604052508101906119f0919061357a565b60015b611a77573d8060008114611a23576040519150601f19603f3d011682016040523d82523d6000602084013e611a28565b606091505b506000815103611a6f57836040517f64a0ae92000000000000000000000000000000000000000000000000000000008152600401611a6691906128a9565b60405180910390fd5b805160208201fd5b63150b7a0260e01b7bffffffffffffffffffffffffffffffffffffffffffffffffffffffff1916817bffffffffffffffffffffffffffffffffffffffffffffffffffffffff191614611b0057836040517f64a0ae92000000000000000000000000000000000000000000000000000000008152600401611af791906128a9565b60405180910390fd5b505b5050505050565b6060611b1482611309565b506000600660008481526020019081526020016000208054611b3590612e73565b80601f0160208091040260200160405190810160405280929190818152602001828054611b6190612e73565b8015611bae5780601f10611b8357610100808354040283529160200191611bae565b820191906000526020600020905b815481529060010190602001808311611b9157829003601f168201915b505050505090506000611bbf61200d565b90506000815103611bd4578192505050611c17565b600082511115611c09578082604051602001611bf19291906135e3565b60405160208183030381529060405292505050611c17565b611c1284612024565b925050505b919050565b60007f80ac58cd000000000000000000000000000000000000000000000000000000007bffffffffffffffffffffffffffffffffffffffffffffffffffffffff1916827bffffffffffffffffffffffffffffffffffffffffffffffffffffffff19161480611ce757507f5b5e139f000000000000000000000000000000000000000000000000000000007bffffffffffffffffffffffffffffffffffffffffffffffffffffffff1916827bffffffffffffffffffffffffffffffffffffffffffffffffffffffff1916145b80611cf75750611cf68261208d565b5b9050919050565b60006002600083815260200190815260200160002060009054906101000a900473ffffffffffffffffffffffffffffffffffffffff169050919050565b8080611d745750600073ffffffffffffffffffffffffffffffffffffffff168273ffffffffffffffffffffffffffffffffffffffff1614155b15611ea8576000611d8484611309565b9050600073ffffffffffffffffffffffffffffffffffffffff168373ffffffffffffffffffffffffffffffffffffffff1614158015611def57508273ffffffffffffffffffffffffffffffffffffffff168173ffffffffffffffffffffffffffffffffffffffff1614155b8015611e025750611e008184610e7d565b155b15611e4457826040517fa9fbf51f000000000000000000000000000000000000000000000000000000008152600401611e3b91906128a9565b60405180910390fd5b8115611ea657838573ffffffffffffffffffffffffffffffffffffffff168273ffffffffffffffffffffffffffffffffffffffff167f8c5be1e5ebec7d5bd14f71427d1e84f3dd0314c0f7b2291e5b200ac8c7c3b92560405160405180910390a45b505b836004600085815260200190815260200160002060006101000a81548173ffffffffffffffffffffffffffffffffffffffff021916908373ffffffffffffffffffffffffffffffffffffffff16021790555050505050565b611f0b8484846120f7565b611f1f611f166113ce565b85858585611958565b50505050565b611f30838383612264565b611fe457600073ffffffffffffffffffffffffffffffffffffffff168373ffffffffffffffffffffffffffffffffffffffff1603611fa557806040517f7e273289000000000000000000000000000000000000000000000000000000008152600401611f9c9190612adb565b60405180910390fd5b81816040517f177e802f000000000000000000000000000000000000000000000000000000008152600401611fdb929190613607565b60405180910390fd5b505050565b611ff38383612325565b612008611ffe6113ce565b6000858585611958565b505050565b606060405180602001604052806000815250905090565b606061202f82611309565b50600061203a61200d565b9050600081511161205a5760405180602001604052806000815250612085565b806120648461241e565b6040516020016120759291906135e3565b6040516020818303038152906040525b915050919050565b60007f01ffc9a7000000000000000000000000000000000000000000000000000000007bffffffffffffffffffffffffffffffffffffffffffffffffffffffff1916827bffffffffffffffffffffffffffffffffffffffffffffffffffffffff1916149050919050565b600073ffffffffffffffffffffffffffffffffffffffff168273ffffffffffffffffffffffffffffffffffffffff16036121695760006040517f64a0ae9200000000000000000000000000000000000000000000000000000000815260040161216091906128a9565b60405180910390fd5b60006121778383600061148f565b9050600073ffffffffffffffffffffffffffffffffffffffff168173ffffffffffffffffffffffffffffffffffffffff16036121ea57816040517f7e2732890000000000000000000000000000000000000000000000000000000081526004016121e19190612adb565b60405180910390fd5b8373ffffffffffffffffffffffffffffffffffffffff168173ffffffffffffffffffffffffffffffffffffffff161461225e578382826040517f64283d7b00000000000000000000000000000000000000000000000000000000815260040161225593929190612fc8565b60405180910390fd5b50505050565b60008073ffffffffffffffffffffffffffffffffffffffff168373ffffffffffffffffffffffffffffffffffffffff161415801561231c57508273ffffffffffffffffffffffffffffffffffffffff168473ffffffffffffffffffffffffffffffffffffffff1614806122dd57506122dc8484610e7d565b5b8061231b57508273ffffffffffffffffffffffffffffffffffffffff1661230383611391565b73ffffffffffffffffffffffffffffffffffffffff16145b5b90509392505050565b600073ffffffffffffffffffffffffffffffffffffffff168273ffffffffffffffffffffffffffffffffffffffff16036123975760006040517f64a0ae9200000000000000000000000000000000000000000000000000000000815260040161238e91906128a9565b60405180910390fd5b60006123a58383600061148f565b9050600073ffffffffffffffffffffffffffffffffffffffff168173ffffffffffffffffffffffffffffffffffffffff16146124195760006040517f73c6ac6e00000000000000000000000000000000000000000000000000000000815260040161241091906128a9565b60405180910390fd5b505050565b60606000600161242d846124ec565b01905060008167ffffffffffffffff81111561244c5761244b612b00565b5b6040519080825280601f01601f19166020018201604052801561247e5781602001600182028036833780820191505090505b509050600082602083010190505b6001156124e1578080600190039150507f3031323334353637383961626364656600000000000000000000000000000000600a86061a8153600a85816124d5576124d4613630565b5b0494506000850361248c575b819350505050919050565b600080600090507a184f03e93ff9f4daa797ed6e38ed64bf6a1f010000000000000000831061254a577a184f03e93ff9f4daa797ed6e38ed64bf6a1f01000000000000000083816125405761253f613630565b5b0492506040810190505b6d04ee2d6d415b85acef81000000008310612587576d04ee2d6d415b85acef8100000000838161257d5761257c613630565b5b0492506020810190505b662386f26fc1000083106125b657662386f26fc1000083816125ac576125ab613630565b5b0492506010810190505b6305f5e10083106125df576305f5e10083816125d5576125d4613630565b5b0492506008810190505b61271083106126045761271083816125fa576125f9613630565b5b0492506004810190505b60648310612627576064838161261d5761261c613630565b5b0492506002810190505b600a8310612636576001810190505b80915050919050565b6040518060a0016040528060008152602001600081526020016000815260200160008152602001600073ffffffffffffffffffffffffffffffffffffffff1681525090565b6000604051905090565b600080fd5b600080fd5b60007fffffffff0000000000000000000000000000000000000000000000000000000082169050919050565b6126cd81612698565b81146126d857600080fd5b50565b6000813590506126ea816126c4565b92915050565b6000602082840312156127065761270561268e565b5b6000612714848285016126db565b91505092915050565b60008115159050919050565b6127328161271d565b82525050565b600060208201905061274d6000830184612729565b92915050565b600081519050919050565b600082825260208201905092915050565b60005b8381101561278d578082015181840152602081019050612772565b60008484015250505050565b6000601f19601f8301169050919050565b60006127b582612753565b6127bf818561275e565b93506127cf81856020860161276f565b6127d881612799565b840191505092915050565b600060208201905081810360008301526127fd81846127aa565b905092915050565b6000819050919050565b61281881612805565b811461282357600080fd5b50565b6000813590506128358161280f565b92915050565b6000602082840312156128515761285061268e565b5b600061285f84828501612826565b91505092915050565b600073ffffffffffffffffffffffffffffffffffffffff82169050919050565b600061289382612868565b9050919050565b6128a381612888565b82525050565b60006020820190506128be600083018461289a565b92915050565b6128cd81612888565b81146128d857600080fd5b50565b6000813590506128ea816128c4565b92915050565b600080604083850312156129075761290661268e565b5b6000612915858286016128db565b925050602061292685828601612826565b9150509250929050565b6000806000606084860312156129495761294861268e565b5b6000612957868287016128db565b9350506020612968868287016128db565b925050604061297986828701612826565b9150509250925092565b61298c81612805565b82525050565b61299b81612888565b82525050565b60a0820160008201516129b76000850182612983565b5060208201516129ca6020850182612983565b5060408201516129dd6040850182612983565b5060608201516129f06060850182612983565b506080820151612a036080850182612992565b50505050565b600060a082019050612a1e60008301846129a1565b92915050565b600080600080600060a08688031215612a4057612a3f61268e565b5b6000612a4e888289016128db565b9550506020612a5f88828901612826565b9450506040612a7088828901612826565b9350506060612a8188828901612826565b9250506080612a9288828901612826565b9150509295509295909350565b600060208284031215612ab557612ab461268e565b5b6000612ac3848285016128db565b91505092915050565b612ad581612805565b82525050565b6000602082019050612af06000830184612acc565b92915050565b600080fd5b600080fd5b7f4e487b7100000000000000000000000000000000000000000000000000000000600052604160045260246000fd5b612b3882612799565b810181811067ffffffffffffffff82111715612b5757612b56612b00565b5b80604052505050565b6000612b6a612684565b9050612b768282612b2f565b919050565b600067ffffffffffffffff821115612b9657612b95612b00565b5b612b9f82612799565b9050602081019050919050565b82818337600083830152505050565b6000612bce612bc984612b7b565b612b60565b905082815260208101848484011115612bea57612be9612afb565b5b612bf5848285612bac565b509392505050565b600082601f830112612c1257612c11612af6565b5b8135612c22848260208601612bbb565b91505092915050565b600060208284031215612c4157612c4061268e565b5b600082013567ffffffffffffffff811115612c5f57612c5e612693565b5b612c6b84828501612bfd565b91505092915050565b612c7d8161271d565b8114612c8857600080fd5b50565b600081359050612c9a81612c74565b92915050565b60008060408385031215612cb757612cb661268e565b5b6000612cc5858286016128db565b9250506020612cd685828601612c8b565b9150509250929050565b600067ffffffffffffffff821115612cfb57612cfa612b00565b5b612d0482612799565b9050602081019050919050565b6000612d24612d1f84612ce0565b612b60565b905082815260208101848484011115612d4057612d3f612afb565b5b612d4b848285612bac565b509392505050565b600082601f830112612d6857612d67612af6565b5b8135612d78848260208601612d11565b91505092915050565b60008060008060808587031215612d9b57612d9a61268e565b5b6000612da9878288016128db565b9450506020612dba878288016128db565b9350506040612dcb87828801612826565b925050606085013567ffffffffffffffff811115612dec57612deb612693565b5b612df887828801612d53565b91505092959194509250565b60008060408385031215612e1b57612e1a61268e565b5b6000612e29858286016128db565b9250506020612e3a858286016128db565b9150509250929050565b7f4e487b7100000000000000000000000000000000000000000000000000000000600052602260045260246000fd5b60006002820490506001821680612e8b57607f821691505b602082108103612e9e57612e9d612e44565b5b50919050565b7f596f7520617265206e6f742072656e74696e67207468697320686f6d65210000600082015250565b6000612eda601e8361275e565b9150612ee582612ea4565b602082019050919050565b60006020820190508181036000830152612f0981612ecd565b9050919050565b7f596f75206172652074686520636f6e7472616374206f776e65722c207573652060008201527f726574616b654f776e657273686970206f7220726574616b654f776e6572736860208201527f6970466f72636564210000000000000000000000000000000000000000000000604082015250565b6000612f9260498361275e565b9150612f9d82612f10565b606082019050919050565b60006020820190508181036000830152612fc181612f85565b9050919050565b6000606082019050612fdd600083018661289a565b612fea6020830185612acc565b612ff7604083018461289a565b949350505050565b60006040820190506130146000830185612acc565b613021602083018461289a565b9392505050565b7f4e487b7100000000000000000000000000000000000000000000000000000000600052601160045260246000fd5b600061306282612805565b91507fffffffffffffffffffffffffffffffffffffffffffffffffffffffffffffffff820361309457613093613028565b5b600182019050919050565b60006040820190506130b46000830185612acc565b81810360208301526130c681846127aa565b90509392505050565b7f52656e74616c206973207374696c6c2076616c69640000000000000000000000600082015250565b600061310560158361275e565b9150613110826130cf565b602082019050919050565b60006020820190508181036000830152613134816130f8565b9050919050565b7f596f7520617265206e6f7420656e61626c656420746f2072657472696576652060008201527f6f722070617920746869732072656e7400000000000000000000000000000000602082015250565b600061319760308361275e565b91506131a28261313b565b604082019050919050565b600060208201905081810360008301526131c68161318a565b9050919050565b60006131d882612805565b91506131e383612805565b92508282026131f181612805565b9150828204841483151761320857613207613028565b5b5092915050565b60006060820190506132246000830186612acc565b613231602083018561289a565b61323e6040830184612acc565b949350505050565b60008190508160005260206000209050919050565b60006020601f8301049050919050565b600082821b905092915050565b6000600883026132a87fffffffffffffffffffffffffffffffffffffffffffffffffffffffffffffffff8261326b565b6132b2868361326b565b95508019841693508086168417925050509392505050565b6000819050919050565b60006132ef6132ea6132e584612805565b6132ca565b612805565b9050919050565b6000819050919050565b613309836132d4565b61331d613315826132f6565b848454613278565b825550505050565b600090565b613332613325565b61333d818484613300565b505050565b5b818110156133615761335660008261332a565b600181019050613343565b5050565b601f8211156133a65761337781613246565b6133808461325b565b8101602085101561338f578190505b6133a361339b8561325b565b830182613342565b50505b505050565b600082821c905092915050565b60006133c9600019846008026133ab565b1980831691505092915050565b60006133e283836133b8565b9150826002028217905092915050565b6133fb82612753565b67ffffffffffffffff81111561341457613413612b00565b5b61341e8254612e73565b613429828285613365565b600060209050601f83116001811461345c576000841561344a578287015190505b61345485826133d6565b8655506134bc565b601f19841661346a86613246565b60005b828110156134925784890151825560018201915060208501945060208101905061346d565b868310156134af57848901516134ab601f8916826133b8565b8355505b6001600288020188555050505b505050505050565b600081519050919050565b600082825260208201905092915050565b60006134eb826134c4565b6134f581856134cf565b935061350581856020860161276f565b61350e81612799565b840191505092915050565b600060808201905061352e600083018761289a565b61353b602083018661289a565b6135486040830185612acc565b818103606083015261355a81846134e0565b905095945050505050565b600081519050613574816126c4565b92915050565b6000602082840312156135905761358f61268e565b5b600061359e84828501613565565b91505092915050565b600081905092915050565b60006135bd82612753565b6135c781856135a7565b93506135d781856020860161276f565b80840191505092915050565b60006135ef82856135b2565b91506135fb82846135b2565b91508190509392505050565b600060408201905061361c600083018561289a565b6136296020830184612acc565b9392505050565b7f4e487b7100000000000000000000000000000000000000000000000000000000600052601260045260246000fdfea2646970667358221220d6d349a1656a2eb266de012d57a004eb59c4aa19a2d83e607f8041fb8042adde64736f6c634300081c0033",
  "linkReferences": {},
  "deployedLinkReferences": {}
}